{"abi":[{"type":"constructor","inputs":[],"stateMutability":"nonpayable"},{"type":"receive","stateMutability":"payable"},{"type":"function","name":"MAX_CANDIDATES","inputs":[],"outputs":[{"name":"","type":"uint256","internalType":"uint256"}],"stateMutability":"view"},{"type":"function","name":"VOTING_DURATION","inputs":[],"outputs":[{"name":"","type":"uint256","internalType":"uint256"}],"stateMutability":"view"},{"type":"function","name":"candidateVotes","inputs":[{"name":"","type":"string","internalType":"string"}],"outputs":[{"name":"","type":"uint256","internalType":"uint256"}],"stateMutability":"view"},{"type":"function","name":"getAllCandidates","inputs":[],"outputs":[{"name":"","type":"string[]","internalType":"string[]"}],"stateMutability":"view"},{"type":"function","name":"getTotalVotes","inputs":[],"outputs":[{"name":"","type":"uint256","internalType":"uint256"}],"stateMutability":"view"},{"type":"function","name":"getVotesForCandidate","inputs":[{"name":"candidate","type":"string","internalType":"string"}],"outputs":[{"name":"","type":"uint256","internalType":"uint256"}],"stateMutability":"view"},{"type":"function","name":"hasVoted","inputs":[{"name":"","type":"address","internalType":"address"}],"outputs":[{"name":"","type":"bool","internalType":"bool"}],"stateMutability":"view"},{"type":"function","name":"owner","inputs":[],"outputs":[{"name":"","type":"address","internalType":"address"}],"stateMutability":"view"},{"type":"function","name":"resetVoting","inputs":[],"outputs":[],"stateMutability":"nonpayable"},{"type":"function","name":"startTime","inputs":[],"outputs":[{"name":"","type":"uint256","internalType":"uint256"}],"stateMutability":"view"},{"type":"function","name":"submitVote","inputs":[{"name":"candidate","type":"string","internalType":"string"},{"name":"attestationHash","type":"bytes32","internalType":"bytes32"}],"outputs":[],"stateMutability":"nonpayable"},{"type":"function","name":"verifyAttestation","inputs":[{"name":"attestationHash","type":"bytes32","internalType":"bytes32"}],"outputs":[{"name":"","type":"bool","internalType":"bool"}],"stateMutability":"pure"},{"type":"function","name":"votes","inputs":[{"name":"","type":"uint256","internalType":"uint256"}],"outputs":[{"name":"voter","type":"address","internalType":"address"},{"name":"candidate","type":"string","internalType":"string"},{"name":"attestationHash","type":"bytes32","internalType":"bytes32"},{"name":"timestamp","type":"uint256","internalType":"uint256"}],"stateMutability":"view"},{"type":"event","name":"VoteSubmitted","inputs":[{"name":"voter","type":"address","indexed":true,"internalType":"address"},{"name":"candidate","type":"string","indexed":false,"internalType":"string"},{"name":"attestationHash","type":"bytes32","indexed":false,"internalType":"bytes32"}],"anonymous":false},{"type":"event","name":"VotingReset","inputs":[],"anonymous":false}],"bytecode":{"object":"0x6080604052348015600f57600080fd5b50600080546001600160a01b031916331790554260045561103a806100356000396000f3fe6080604052600436106100c55760003560e01c80636ff156271161007f5780638da5cb5b116100595780638da5cb5b1461029d5780639a0e7d66146102d5578063a438d208146102ea578063f07860961461030157600080fd5b80636ff156271461025257806378e9792514610272578063856e698c1461028857600080fd5b8062514d7a1461013357806308f469571461017e57806309eef43e146101ae5780632e6997fe146101de57806341a5c0e2146102005780635df813301461022257600080fd5b3661012e5760405162461bcd60e51b815260206004820152602e60248201527f5468697320636f6e747261637420646f6573206e6f742061636365707420646960448201526d72656374207472616e736665727360901b60648201526084015b60405180910390fd5b600080fd5b34801561013f57600080fd5b5061016b61014e366004610bf4565b805160208183018101805160038252928201919093012091525481565b6040519081526020015b60405180910390f35b34801561018a57600080fd5b5061019e610199366004610c31565b151590565b6040519015158152602001610175565b3480156101ba57600080fd5b5061019e6101c9366004610c4a565b60026020526000908152604090205460ff1681565b3480156101ea57600080fd5b506101f3610316565b6040516101759190610cca565b34801561020c57600080fd5b5061022061021b366004610d2f565b610585565b005b34801561022e57600080fd5b5061024261023d366004610c31565b6108a4565b6040516101759493929190610d74565b34801561025e57600080fd5b5061016b61026d366004610bf4565b610972565b34801561027e57600080fd5b5061016b60045481565b34801561029457600080fd5b5061022061099a565b3480156102a957600080fd5b506000546102bd906001600160a01b031681565b6040516001600160a01b039091168152602001610175565b3480156102e157600080fd5b5060015461016b565b3480156102f657600080fd5b5061016b62093a8081565b34801561030d57600080fd5b5061016b600a81565b60015460609060009067ffffffffffffffff81111561033757610337610b4f565b60405190808252806020026020018201604052801561036a57816020015b60608152602001906001900390816103555790505b5090506000805b6001548110156104e157600160005b838110156103f8576001838154811061039b5761039b610dab565b90600052602060002090600402016001016040516103b99190610dfb565b60405180910390208582815181106103d3576103d3610dab565b602002602001015180519060200120036103f057600091506103f8565b600101610380565b5080156104d8576001828154811061041257610412610dab565b9060005260206000209060040201600101805461042e90610dc1565b80601f016020809104026020016040519081016040528092919081815260200182805461045a90610dc1565b80156104a75780601f1061047c576101008083540402835291602001916104a7565b820191906000526020600020905b81548152906001019060200180831161048a57829003601f168201915b50505050508484815181106104be576104be610dab565b602002602001018190525082806104d490610e86565b9350505b50600101610371565b5060008167ffffffffffffffff8111156104fd576104fd610b4f565b60405190808252806020026020018201604052801561053057816020015b606081526020019060019003908161051b5790505b50905060005b8281101561057d5783818151811061055057610550610dab565b602002602001015182828151811061056a5761056a610dab565b6020908102919091010152600101610536565b509392505050565b62093a806004546105969190610e9f565b4211156105e55760405162461bcd60e51b815260206004820152601760248201527f566f74696e6720706572696f642068617320656e6465640000000000000000006044820152606401610125565b3360009081526002602052604090205460ff161561063e5760405162461bcd60e51b8152602060048201526016602482015275165bdd481a185d9948185b1c9958591e481d9bdd195960521b6044820152606401610125565b600082511161068f5760405162461bcd60e51b815260206004820152601e60248201527f43616e646964617465206e616d652063616e6e6f7420626520656d70747900006044820152606401610125565b806106dc5760405162461bcd60e51b815260206004820152601860248201527f496e76616c6964206174746573746174696f6e206861736800000000000000006044820152606401610125565b600a6003836040516106ee9190610eb8565b9081526020016040518091039020541061074a5760405162461bcd60e51b815260206004820152601760248201527f43616e646964617465206c696d697420726561636865640000000000000000006044820152606401610125565b604080516080810182523381526020810184815291810183905242606082015260018054808201825560009190915281517fb10e2d527612073b26eecdfd717e6a320cf44b4afac2b0732d9fcbe2b7fa0cf6600490920291820180546001600160a01b0319166001600160a01b0390921691909117815592519192839290917fb10e2d527612073b26eecdfd717e6a320cf44b4afac2b0732d9fcbe2b7fa0cf701906107f69082610f23565b5060408281015160028084019190915560609093015160039283015533600090815260209390935291829020805460ff19166001179055905161083a908590610eb8565b908152604051908190036020019020805490600061085783610e86565b9190505550336001600160a01b03167f6e3c0e879b7eb6e2a09399bcd7e4a20369bd0f28e336c2c2f457412ecb9a532a8484604051610897929190610fe2565b60405180910390a2505050565b600181815481106108b457600080fd5b6000918252602090912060049091020180546001820180546001600160a01b039092169350906108e390610dc1565b80601f016020809104026020016040519081016040528092919081815260200182805461090f90610dc1565b801561095c5780601f106109315761010080835404028352916020019161095c565b820191906000526020600020905b81548152906001019060200180831161093f57829003601f168201915b5050505050908060020154908060030154905084565b60006003826040516109849190610eb8565b9081526020016040518091039020549050919050565b6000546001600160a01b031633146109fe5760405162461bcd60e51b815260206004820152602160248201527f4f6e6c79206f776e65722063616e2063616c6c20746869732066756e6374696f6044820152603760f91b6064820152608401610125565b610a0a60016000610aa1565b4260045560005b600154811015610a755760006002600060018481548110610a3457610a34610dab565b60009182526020808320600492909202909101546001600160a01b031683528201929092526040019020805460ff1916911515919091179055600101610a11565b506040517feb4b0a76799cb305ae86d5a0b30e0e77b1e23fa8cb85eb788ede212bd6b324a690600090a1565b5080546000825560040290600052602060002090810190610ac29190610ac5565b50565b80821115610b015780546001600160a01b03191681556000610aea6001830182610b05565b506000600282018190556003820155600401610ac5565b5090565b508054610b1190610dc1565b6000825580601f10610b21575050565b601f016020900490600052602060002090810190610ac291905b80821115610b015760008155600101610b3b565b634e487b7160e01b600052604160045260246000fd5b600082601f830112610b7657600080fd5b813567ffffffffffffffff811115610b9057610b90610b4f565b604051601f8201601f19908116603f0116810167ffffffffffffffff81118282101715610bbf57610bbf610b4f565b604052818152838201602001851015610bd757600080fd5b816020850160208301376000918101602001919091529392505050565b600060208284031215610c0657600080fd5b813567ffffffffffffffff811115610c1d57600080fd5b610c2984828501610b65565b949350505050565b600060208284031215610c4357600080fd5b5035919050565b600060208284031215610c5c57600080fd5b81356001600160a01b0381168114610c7357600080fd5b9392505050565b60005b83811015610c95578181015183820152602001610c7d565b50506000910152565b60008151808452610cb6816020860160208601610c7a565b601f01601f19169290920160200192915050565b6000602082016020835280845180835260408501915060408160051b86010192506020860160005b82811015610d2357603f19878603018452610d0e858351610c9e565b94506020938401939190910190600101610cf2565b50929695505050505050565b60008060408385031215610d4257600080fd5b823567ffffffffffffffff811115610d5957600080fd5b610d6585828601610b65565b95602094909401359450505050565b6001600160a01b0385168152608060208201819052600090610d9890830186610c9e565b6040830194909452506060015292915050565b634e487b7160e01b600052603260045260246000fd5b600181811c90821680610dd557607f821691505b602082108103610df557634e487b7160e01b600052602260045260246000fd5b50919050565b6000808354610e0981610dc1565b600182168015610e205760018114610e3557610e65565b60ff1983168652811515820286019350610e65565b86600052602060002060005b83811015610e5d57815488820152600190910190602001610e41565b505081860193505b509195945050505050565b634e487b7160e01b600052601160045260246000fd5b600060018201610e9857610e98610e70565b5060010190565b80820180821115610eb257610eb2610e70565b92915050565b60008251610eca818460208701610c7a565b9190910192915050565b601f821115610f1e57806000526020600020601f840160051c81016020851015610efb5750805b601f840160051c820191505b81811015610f1b5760008155600101610f07565b50505b505050565b815167ffffffffffffffff811115610f3d57610f3d610b4f565b610f5181610f4b8454610dc1565b84610ed4565b6020601f821160018114610f855760008315610f6d5750848201515b600019600385901b1c1916600184901b178455610f1b565b600084815260208120601f198516915b82811015610fb55787850151825560209485019460019092019101610f95565b5084821015610fd35786840151600019600387901b60f8161c191681555b50505050600190811b01905550565b604081526000610ff56040830185610c9e565b9050826020830152939250505056fea26469706673582212206a09d686b875622a4a91372b9b8a8c9b613b9c9eb97826acfb2c94e897d9b3fb64736f6c634300081c0033","linkReferences":{}},"methodIdentifiers":{"MAX_CANDIDATES()":"f0786096","VOTING_DURATION()":"a438d208","candidateVotes(string)":"00514d7a","getAllCandidates()":"2e6997fe","getTotalVotes()":"9a0e7d66","getVotesForCandidate(string)":"6ff15627","hasVoted(address)":"09eef43e","owner()":"8da5cb5b","resetVoting()":"856e698c","startTime()":"78e97925","submitVote(string,bytes32)":"41a5c0e2","verifyAttestation(bytes32)":"08f46957","votes(uint256)":"5df81330"},"id":20}